:020000040800F2
:10000000C00A002045260008ED050008EF0500089D
:10001000F3050008F7050008FB05000800000000D4
:10002000000000000000000000000000FF050008C4
:10003000010600080000000003060008050600088D
:100040005F2600085F2600085F2600085F2600087C
:100050005F2600085F2600085F2600085F2600086C
:100060005F2600085F2600085F2600085F2600085C
:100070005F2600085F2600085F2600085F2600084C
:100080005F2600085F2600085F2600085F2600083C
:100090005F2600085F2600085F2600085F2600082C
:1000A0005F2600085F2600085F2600085F2600081C
:1000B0005F2600085F2600085F2600085F2600080C
:1000C0005F2600085F2600085F2600085F260008FC
:1000D0005F260008B1220008D1230008EF240008A1
:1000E0005F2600085F2600085F2600085F260008DC
:1000F0005F2600085F2600085F2600085F260008CC
:100100005F2600085F2600085F2600085F260008BB
:100110005F2600085F2600085F2600085F260008AB
:100120005F2600085F2600085F2600085F2600089B
:1001300000F002F800F03FF80AA090E8000C8244BA
:100140008344AAF10107DA4501D100F034F8AFF297
:10015000090EBAE80F0013F0010F18BFFB1A43F0A5
:10016000010318476038000080380000103A24BFAF
:1001700078C878C1FAD8520724BF30C830C144BF0C
:1001800004680C607047000000230024002500264E
:10019000103A28BF78C1FBD8520728BF30C148BFEA
:1001A0000B607047782903F01B82002070471FB551
:1001B0001FBD10B510BD03F067FB1146FFF7F7FF39
:1001C00000F008F803F085FB03B4FFF7F2FF03BC6F
:1001D00002F010F8F8B50420844908700020487037
:1001E00001F092FF4FF4A06002F04CFA4FF4E130BE
:1001F00002F00FF87E4803F0BFF901F085FF01F02F
:1002000001FA01F073FD01F0C1FD642001F0B9FFB6
:1002100001F0AFFD774803F0AFF901F015FF1721AA
:100220004EF65F2002F0B8F941F28831724801F0D1
:10023000B7F840F6FC01704801F0B4F8D2E04FF492
:10024000FA7001F09EFF6949522001F0EBFA002894
:10025000F4D1664840786549097840EA012631467C
:1002600066A003F089F9B6F5006F1CD006DCB6F580
:10027000007F14D0B6F5806F1DD10CE0B6F5884F25
:1002800005D0A6F588400338002814D10FE060A0FF
:1002900003F072F913E063A003F06EF90FE066A0BB
:1002A00003F06AF90BE069A003F066F907E06BA0C0
:1002B00003F062F903E06EA003F05EF900BF00BF37
:1002C0006F4801F0D9FA6F4908700846007818B1F4
:1002D0006DA003F051F909E06948C07800906848C2
:1002E0008378427801786DA003F046F9644801F004
:1002F00031FB644908700846007830B170A003F003
:100300003BF977A003F038F964E079A003F034F901
:100310005B4B7A4A0521602001F055FB5949087072
:100320000846007810B176A003F026F95548007809
:1003300000284FD1002401E0601CC4B2042C05DA6F
:100340004F48005D7349095D8842F5D0042C06D002
:1003500071A003F011F973A003F00EF943E0042C2F
:1003600022D180A003F008F983A003F005F98749A2
:10037000052001F066FB434908704FF4FA7001F064
:1003800000FF4048007818B181A003F0F5F82AE09A
:10039000002501E0681CC5B2102D05DA7B48405DE0
:1003A0007F49495D8842F5D0102D0CD1042C0AD12B
:1003B0007CA003F0E1F882A003F0DEF801F050FE2B
:1003C00082A003F0D9F8102D04D0042C02D182A011
:1003D00003F0D2F801F071FC2A49087051A003F033
:1003E000CBF800BF2BE700BF0020F8BD00000020C5
:1003F0007C3900083439000800040040BFA8C0E080
:10040000D0CDA3BA28307825303458290D0A000001
:100410004D696661726520556C7472614C696768DC
:10042000740D0A004D6966617265204F6E65285330
:100430003530290D0A0000004D6966617265204F54
:100440006E6528533730290D0A0000004D6966613A
:1004500072652050726F2858290D0A004D69666137
:10046000726520444553466972650D0A000000001C
:10047000556E6B6E6F776E20436172640D0A0000DB
:10048000020000200C000020416E7469636F6C6CE8
:10049000204572726F720D0A000000005365726988
:1004A000616C204E756D6265723A25303258253088
:1004B000325825303258253032580D0A00000000DD
:1004C000BFA8C6ACD2C6B6AFCBD9B6C8CCABBFEC12
:1004D000A3ACD1A1BFA8CAA7B0DC0D0A00000000E0
:1004E000C7EBD6D8D0C2CBA2BFA80D0A000000002F
:1004F000D1A1BFA8B3C9B9A60D0A0000060000200B
:10050000BFA8C3DCC2EBD1E9D6A4B4EDCEF30D0A8B
:100510000000000011000020BFA8CEB4D7A2B2E1B5
:100520000D0A00000D0A2A2A2A2A2A2A2A2A2A2AF9
:100530002A2A2A2A2A2A2A2A2A2A2A2A2A2A2A2A1B
:100540002A2A2A2A2A2A2A2A2A2A2A2A2A2A2A2A0B
:100550002A2A2A2A2A2A2A2A2A2A2A2A2A2A2A2AFB
:100560000D0A0000BFA8D0F2C1D0BAC5D1E9D6A407
:10057000B3C9B9A60D0A0000D5FDD4DAB6C1C8A129
:10058000C9C8C7F82E2E2E2E0D0A000064000020C8
:10059000B6C1C8A1C9C8C7F8CAA7B0DC0D0A000017
:1005A000150000200D0AD0F2C1D0BAC5D3EBC9C8DE
:1005B000C7F8CAB6B1F0D5FDC8B70D0A00000000F3
:1005C000D5FDD4DABFAAD5A20D0A0000B9D8D5A2AC
:1005D000B3C9B9A60D0A00000D0AC9C8C7F8D1E908
:1005E000D6A4CAA7B0DC0D0A00000000704700BF07
:1005F000FEE700BFFEE700BFFEE700BFFEE7704773
:10060000704770477047000010B50446FE488442AA
:1006100008D10121C01402F0D9FB0021E01402F03E
:10062000D5FBC4E0B4F1804F08D10121084602F0A7
:10063000DAFB0021012002F0D6FBB8E0F348844247
:1006400008D10121022002F0CEFB0021022002F09D
:10065000CAFBACE0EE48844208D10121042002F03C
:10066000C2FB0021042002F0BEFBA0E0E948844266
:1006700008D10121082002F0B6FB0021082002F079
:10068000B2FB94E0E448844208D10121102002F03A
:10069000AAFB0021102002F0A6FB88E0DF4884427C
:1006A00008D10121202002F09EFB0021202002F031
:1006B0009AFB7CE0DA48844208D10121401402F020
:1006C00085FB0021601402F081FB70E0D548844274
:1006D00009D10121C80402F079FB00214FF4002068
:1006E00002F074FB63E0D048844209D1012108057F
:1006F00002F06CFB00214FF4801002F067FB56E023
:10070000CA48844209D10121480502F05FFB00215B
:100710004FF4001002F05AFB49E0C548844208D16A
:100720000121402002F05FFB0021402002F05BFB32
:100730003DE0C048844208D10121802002F053FBF3
:100740000021802002F04FFB31E0BB48844208D1F9
:100750000121801502F047FB0021A01502F043FBA8
:1007600025E0B648844209D10121080402F02EFB9D
:1007700000214FF4803002F029FB18E0B048844299
:1007800009D10121480402F021FB00214FF400307F
:1007900002F01CFB0BE0AB48844208D10121880425
:1007A00002F014FB00214FF4802002F00FFB10BD7B
:1007B00000220288944B98420ED0994B98420BD05D
:1007C000B0F1804F08D0914B984205D0904B9842A1
:1007D00002D0904B984204D14FF68F731A404B8849
:1007E0001A438D4B984207D08C4B984204D04FF659
:1007F000FF431A40CB881A4302808B8883850B887D
:100800000385814B98420BD0854B984208D08B4B87
:10081000984205D08A4B984202D08A4B984201D127
:100820000B7A038601238382704770B5002400226F
:100830000023058C4FF6FE7635400584028C8388B4
:10084000048B4FF68F752C40B51E2C400D882C4321
:10085000751E2A400D892A434D882A436A4DA842B5
:100860000BD06F4DA84208D0744DA84205D0744DEE
:10087000A84202D0734DA84213D14FF6F7752A4013
:100880004D892A434FF6FB752A408D882A434FF63F
:10089000FF652B404FF6FF552B408D892B43CD89AB
:1008A0002B4383800483CD888586028470BD70B518
:1008B000002400220023058C4FF6EF763540058496
:1008C000028C8388048B48F6FF752C404FF6FF4559
:1008D0002C400D884FF6FF7606EA05252C434FF68F
:1008E000DF752A400D8906EA05152A434D8806EA78
:1008F00005152A43444DA84202D0494DA8421DD1B6
:100900004FF67F752A404D894FF6FF7606EA0515AA
:100910002A434FF6BF752A408D8806EA05152A43FB
:100920004FF6FF352B404FF2FF752B408D8906EABD
:1009300085052B43CD8906EA85052B4383800483F7
:10094000CD880587028470BD70B500240022002385
:10095000058C4FF6FF6635400584028C8388848BB6
:100960004FF68F752C404FF6FC752C400D882C43AC
:100970004FF6FF552A400D894FF6FF7606EA05250A
:100980002A434D8806EA05252A431F4DA84202D076
:10099000234DA8421DD14FF2FF752A404D894FF6D5
:1009A000FF7606EA05252A434FF6FF352A408D8853
:1009B00006EA05252A434EF6FF752B404DF6FF75D6
:1009C0002B408D8906EA05152B43CD8906EA0515CE
:1009D0002B4383808483CD888587028470BD70B566
:1009E000002200230024058C4EF6FF763540058456
:1009F000038C8488828B48F6FF752A404FF6FF45AA
:100A00002A400D8820E00000002C01400004004036
:100A100000080040000C004000100040001400409E
:100A200000340140004C014000500140005401409E
:100A300000180040001C0040002000400040014021
:100A400000440140004801404FF6FF7606EA0525C4
:100A50002A434DF6FF752B400D8906EA05352B43D9
:100A60004D8806EA05352B43FA4DA84202D0FA4DCF
:100A7000A84208D14BF6FF752C408D894FF6FF76C2
:100A800006EA85152C4384808283CD88A0F84050E7
:100A9000038470BD828B4FF2FF331A408283828BB6
:100AA0004FF6FF7303EA01231A4382837047F0B5C0
:100AB0000C461546002200210026078C4EF6FF7CCE
:100AC00007EA0C070784828B018C4FF6FF7707EA51
:100AD000043640F6FF473A404FF6FF7707EA05270E
:100AE0003A434FF6FF7707EA03373A43D94FB84204
:100AF0000ED0D94FB8420BD0B0F1804F08D0D74FAD
:100B0000B84205D0D64FB84202D0D64FB84206D12F
:100B10004DF6FF77394046F48057394305E047F6F4
:100B2000FF57394044F48057394382830184F0BD34
:100B3000828B4FF6F3731A408283828B0A4382833F
:100B40007047F0B50C461546002200210026078CA0
:100B50004FF6FF6C07EA0C070784828B018C4FF677
:100B6000FF7707EA04264FF60C773A404FF6FF77F7
:100B700007EA03172F433A43B64FB8420ED0B64F99
:100B8000B8420BD0B0F1804F08D0B44FB84205D076
:100B9000B34FB84202D0B34FB84206D14FF6FF5719
:100BA000394046F48077394305E04FF2FF5739402A
:100BB00044F48077394382830184F0BD028B4FF285
:100BC000FF331A400283028B4FF6FF7303EA0123BF
:100BD0001A4302837047F0B50C46154600220021E7
:100BE0000026078C4FF6EF7C07EA0C070784028B80
:100BF000018C4FF6FF7707EA041640F6FF473A40AC
:100C00004FF6FF7707EA03373A434FF6FF7707EAD5
:100C100005273A438F4FB8420ED08F4FB8420BD0C2
:100C2000B0F1804F08D08D4FB84205D08C4FB842FC
:100C300002D08C4FB84206D14FF6DF77394046F0EC
:100C40001007394305E04FF65F77394044F010074D
:100C5000394302830184F0BD028B4FF6F3731A40CF
:100C60000283028B0A4302837047F0B50C46154697
:100C700000220021068C4FF6FE773E400684028B50
:100C8000018C4FF60C7632407E1C06EA03162E438A
:100C90003243704EB0420ED06F4EB0420BD0B0F126
:100CA000804F08D06D4EB04205D06D4EB04202D09C
:100CB0006C4EB04206D14FF6FD76314044F001064D
:100CC000314305E04FF6F576314044F001063143FB
:100CD00002830184F0BD70B505460C465D4885422F
:100CE0000ED05D4885420BD0B5F1804F08D05B48EF
:100CF000854205D05A48854202D05A48854200D1E3
:100D000000E000BF208850B92389A2886188284666
:100D1000FFF7ABFFE1882846FFF79EFF25E020881C
:100D200004280AD12389A28861882846FFF753FF47
:100D3000E1882846FFF742FF17E0208808280AD1FB
:100D40002389A28861882846FFF7FBFEE1882846B0
:100D5000FFF7EEFE09E02389A28861882846FFF7A5
:100D6000A6FEE1882846FFF795FE70BD2DE9F0410B
:100D700005460C4600260127608808B9022600E0D7
:100D80000026A088012801D1022700E00127208841
:100D9000A0B92389A28861882846FFF766FFE18809
:100DA0002846FFF759FF23893A4631462846FFF780
:100DB00012FFE1882846FFF701FF13E02389A2888C
:100DC00061882846FFF707FFE1882846FFF7F6FE0F
:100DD00023893A4631462846FFF747FFE1882846EF
:100DE000FFF73AFFBDE8F0810A884B881A438B88E9
:100DF0001A43CB881A430B891A434B891A438B89B0
:100E00001A43A0F8442070474FF6FF7181800021FB
:100E10000180C180418001727047002101804180C2
:100E20008180C180018141818181C1817047002120
:100E300001804180012181800021C18001817047B2
:100E40000021018041808180C180018141818181B7
:100E500070470000002C01400034014000040040B5
:100E600000080040000C004021B1028842F001025D
:100E7000028004E002884FF6FE731A400280704739
:100E800031B1B0F8442042F40042A0F8442005E01B
:100E9000B0F84420C2F30E02A0F8442070471AB103
:100EA00083890B43838102E083898B43838170476D
:100EB0008182704741EA0203A0F8483070471AB1B6
:100EC00083890B43838102E083898B43838170474D
:100ED00001894FF6F8721140018170470A460021DE
:100EE00001894FF68F73194011430181704730B566
:100EF00004460D4629462046FFF7F0FF208940F0C2
:100F00000700208130BD2DE9F04104460D4616460C
:100F10001F46602D06D13B46012231462046FFF791
:100F20005AFE05E03B46012231462046FFF79DFE72
:100F300029462046FFF7D2FF208940F00700208194
:100F4000BDE8F08130B50C4600210189C9B24FF6E9
:100F5000FF7505EA0325154325432943018130BD6B
:100F60002DE9F04105460E461746984600244346B3
:100F70003A4631462846FFF7E5FF2C894FF6F870D0
:100F8000044044F007044FF68F70044044F07004AE
:100F90002C81BDE8F081F0B504460D4616461F468B
:100FA0003B46324629462046FFF7CCFF208940F4D5
:100FB00080402081F0BD0185828270470A46002171
:100FC00001884FF68F731940114301807047F0B5C7
:100FD0000C4615461E460021002200230189028B83
:100FE000038C4FF6F877394021434FF6FC473A40DF
:100FF00040F201173A434FF6DD773B404FF6FF775B
:1010000007EA06172F433B43018102830384F0BDA7
:101010000A460021018B4FF68F731940114301835B
:1010200070470A460021018B48F6FF7319404FF6BE
:10103000FF7303EA02231943018370470A46002124
:10104000818B4FF68F7319401143818370470A4695
:101050000021818B48F6FF7319404FF6FF7303EAB6
:10106000022319438183704721B1028842F0800234
:10107000028004E002884FF67F731A4002807047B6
:1010800021B1828842F00402828004E082884FF617
:10109000FB731A408280704721B1828842F00802B7
:1010A000828004E082884FF6F7731A40828070478E
:1010B00021B1828842F00102828004E082884FF6EA
:1010C000FE731A40828070470A460021018B4FF65A
:1010D000F77319401143018370470A460021018BC1
:1010E0004FF2FF7319404FF6FF7303EA02231943CF
:1010F000018370470A460021818B4FF6F773194030
:101100001143818370470A460021818B4FF2FF73A0
:1011100019404FF6FF7303EA022319438183704796
:101120000A460021018B4FF6FB73194011430183DE
:1011300070470A460021018B4FF6FF3319404FF6E6
:10114000FF7303EA02231943018370470A46002113
:10115000818B4FF6FB7319401143818370470A4618
:101160000021818B4FF6FF3319404FF6FF7303EADE
:1011700002231943818370470A460021018B4FF6F1
:101180007F7319401143018370470A460021018B88
:10119000C1F30E014FF6FF7303EA022319430183E3
:1011A00070470A460021818B4FF67F731940114327
:1011B000818370470A460021818BC1F30E014FF6EF
:1011C000FF7303EA02231943818370470A46002113
:1011D000018C4FF6FD7319401143018470470A4694
:1011E0000021018C4FF6F7731940114301847047B9
:1011F0000A460021018C4FF6DF7319404FF6FF734A
:1012000003EA02131943018470470A460021018C46
:101210004FF67F7319404FF6FF7303EA0213194329
:10122000018470470A460021018C4FF6FF53194094
:101230004FF6FF7303EA02231943018470470A46FD
:101240000021018C4FF2FF7319404FF6FF7303EA40
:1012500002231943018470470A460021018C4DF690
:10126000FF7319404FF6FF7303EA023319430184F9
:10127000704730B5002301248C40A3B2048C9C43FA
:101280000484048C02FA01F5ADB22C43048430BD11
:1012900030B5002304248C40A3B2048C9C43048406
:1012A000048C02FA01F5ADB22C43048430BD70B554
:1012B0000346002000241846183001258D40ACB2AA
:1012C0001D8CA5431D8409B1082909D100EB6100DB
:1012D000056825F0700505600568154305600EE09A
:1012E0000D1FC5F34E052844056825F4E04505604B
:1012F00005684FF6FF7606EA02263543056070BDA5
:1013000021B1028842F00202028004E002884FF616
:10131000FD731A400280704721B1028842F0040236
:10132000028004E002884FF6FB731A400280704787
:1013300021B1828842F08002828004E082884FF6E8
:101340007F731A408280704702884FF6F7731A4005
:10135000028002880A430280704782884FF68F73AA
:101360001A40828082880A438280704702894FF641
:10137000F8731A40028102890A4302817047028988
:101380004FF67F731A40028102890A430281704737
:1013900081847047818570478186704701877047D7
:1013A00081877047A0F84010704702884FF6FF43CE
:1013B0001A40028002880A43028070470146888EE4
:1013C00070470146088F70470146888F7047014675
:1013D000B1F8400070470146888C70470146088D7F
:1013E000704702460020138A0B400BB1012000E039
:1013F00000207047CA430282704730B50246002081
:1014000000230024158A05EA0103958905EA0104F1
:1014100013B10CB1012000E0002030BDCA430282AC
:10142000704700000CB50020019000906C480068E7
:1014300040F480306A49086000BF6948006800F4E1
:10144000003000900198401C0190009818B9019854
:10145000B0F5A06FF1D16248006800F4003010B11F
:101460000120009001E0002000900098012843D165
:101470005C48006840F010005A490860084600685F
:1014800020F0030008600846006840F00200086091
:1014900053484068524948600846406848600846DA
:1014A000406840F4806048600846406820F47C1042
:1014B00048600846406840F4E81048600846006804
:1014C00040F08070086000BF4548006800F0007080
:1014D0000028F9D04248406820F0030040494860A5
:1014E0000846406840F00200486000BF3C48406841
:1014F00000F00C000828F9D10CBD10B5FFF792FFE1
:1015000010BD10B53648006840F00100344908604D
:101510000846406834490840314948600846006838
:10152000324908402E4908600846006820F48020AF
:1015300008600846406820F4FE0048604FF41F0031
:101540008860FFF7DAFF4FF000602949086010BD9E
:1015500010B5002100200022214B5B6803F00C0134
:1015600021B1042906D0082928D107E0214B224CBB
:10157000236027E01F4B204C236023E0184B5B685F
:1015800003F47010164B5B6803F48032022303EB04
:10159000904022B9194B4343174C23600DE0104B88
:1015A0005B6803F4003323B1144B4343124C2360B4
:1015B00003E0104B4343104C236003E00D4B0E4CF3
:1015C000236000BF00BF064B5B68C3F303130C4CE2
:1015D000E15C094B1B68CB40074C236010BD000049
:1015E00000100240002002400000FFF8FFFFF6FE5E
:1015F00008ED00E000127A002800002000093D00FC
:101600002C00002008B50121042001F0C5FB0121B8
:10161000084601F0C1FB0121F74801F0D2F94FF46F
:101620000160ADF8000010208DF803006946F34812
:1016300001F0F6F8F24800F02CFC08BDF8B50446BD
:101640000D46002000907E2000EA44068DF80060E0
:101650008DF80150012000F094FD1021E74801F0C1
:101660008EF902226946E64800F088FC1021E34822
:1016700001F083F9F8BD1CB50446002000907E20DF
:1016800000EA440040F080000190012000F079FD64
:101690001021DA4801F073F9012201A9D84800F0BD
:1016A0006DFC01226946D64800F098FC1021D34811
:1016B00001F063F99DF800001CBD70B505460C46AD
:1016C00000262846FFF7D7FF064646EA04012846CB
:1016D000FFF7B4FF70BD70B505460C4600262846DE
:1016E000FFF7C9FF064626EA04012846FFF7A6FFD2
:1016F00070BD2DE9FE4F0646884691469A46DDF8B4
:1017000030B0022002900020019000900C2E06D0F4
:101710000E2E09D1122001901020009005E07720B4
:1017200001903020009000E000BF00BF019840F021
:1017300080010220FFF782FF80210420FFF7CBFF0A
:1017400000210120FFF77AFF80210A20FFF7B5FF73
:10175000002505E018F805100920FFF76FFF6D1C44
:101760004D45F7D331460120FFF768FF0C2E03D11A
:1017700080210D20FFF7A1FF4FF4487500BF042022
:10178000FFF779FF04466D1E35B104F0010018B96A
:10179000009820400028F2D080210D20FFF79BFF09
:1017A00095B30620FFF767FF00F01B0068BB002021
:1017B00002900198204000F0010008B10120029041
:1017C0000C2E24D10A20FFF756FF04460C20FFF709
:1017D00052FF00F007072FB1601E07EBC000CBF8E7
:1017E000000002E0E000CBF8000004B90124122C54
:1017F00000DD1224002505E00920FFF73CFF0AF870
:1018000005006D1CA542F7D301E002200290802163
:101810000C20FFF752FF00210120FFF70FFF029875
:10182000BDE8FE8F70B588B005460C460821084615
:10183000FFF751FF07210D20FFF700FF03211420C0
:10184000FFF73BFF8DF8085007A802AB012202A961
:1018500000900C20FFF74DFF06464EB90798102860
:1018600006D19DF8080020709DF80900607000E026
:101870000226304608B070BDF0B587B00546002797
:1018800008210846FFF727FF00210D20FFF7D6FEAD
:1018900080210E20FFF71FFF93208DF804002020E9
:1018A0008DF8050006A801AB022201A900900C20CA
:1018B000FFF71FFF064686B9002407E001A8005D78
:1018C000285501A8005D4740601CC4B2042CF5DB1C
:1018D00001A8005DB84200D0022680210E20FFF74B
:1018E000ECFE304607B0F0BD2DE9F04107468846D2
:1018F000154604210520FFF7EEFE00210120FFF729
:101900009DFE80210A20FFF7D8FE002405E0395D06
:101910000920FFF793FE601CC4B24445F7DB0321A6
:101920000120FFF78BFEFF2400BF0520FFF7A3FE79
:101930000646601EC4B21CB106F004000028F4D0B4
:101940002220FFF798FE28702120FFF794FE687090
:10195000BDE8F08170B588B0054693208DF8080089
:1019600070208DF8090000208DF80E0000240BE097
:10197000295D02AAA01C11549DF80E00295D484063
:101980008DF80E00601CC4B2042CF1DB0DF10F02C7
:10199000072102A8FFF7A8FF08210846FFF79BFED2
:1019A00007A802AB092202A900900C20FFF7A1FEB4
:1019B000064626B90798182801D1002600E002261D
:1019C000304608B070BD2DE9F04387B006460F469B
:1019D000904699468DF804608DF80570002406E065
:1019E00018F8041001AAA01C1154601CC4B2062CE3
:1019F000F6DB00240EE00000000230000008014089
:101A00000030014019F8041001AA04F10800115433
:101A1000601CC4B2062CF5DB06A801AB0C2201A9A0
:101A200000900E20FFF765FE05462DB90820FFF750
:101A300022FE00F0080000B90225284607B0BDE8E4
:101A4000F083F0B587B005460E4630208DF80400CF
:101A50008DF805500DF10602022101A8FFF744FFA1
:101A600006A801AB042201A900900C20FFF741FE5B
:101A7000074667B90698902809D1002404E001A818
:101A8000005D3055601CC4B2102CF8DB00E002276A
:101A9000384607B0F0BDF0B587B006460F46A02027
:101AA0008DF804008DF805600DF10602022101A8F1
:101AB000FFF71AFF06A801AB042201A900900C2031
:101AC000FFF717FE054645B90698042805D19DF88D
:101AD000040000F00F000A2800D002250DBB0024EE
:101AE00004E0385D01A90855601CC4B2102CF8DB75
:101AF00005AA102101A8FFF7F7FE06A801AB1222E4
:101B000001A900900C20FFF7F4FD054645B90698A1
:101B1000042805D19DF8040000F00F000A2800D029
:101B20000225284607B0F0BD2DE9F04188B00746F0
:101B30000E4690468DF808708DF809600DF10A0286
:101B4000022102A8FFF7D0FE07A802AB042202A9D7
:101B500000900C20FFF7CDFD044644B907980428F7
:101B600005D19DF8080000F00F000A2800D00224DB
:101B7000E4B9002505E018F8050002A94855681CDD
:101B8000C5B2102DF7DB03AA042102A8FFF7ACFEB3
:101B90000020079007A802AB062202A900900C20A3
:101BA000FFF7A7FD0446022C00D00024F4B9B020B2
:101BB0008DF808008DF809600DF10A02022102A8D3
:101BC000FFF792FE07A802AB042202A900900C20A6
:101BD000FFF78FFD044644B90798042805D19DF806
:101BE000080000F00F000A2800D00224204608B0A8
:101BF000BDE8F08170B588B005460E46C2208DF86C
:101C000008008DF809500DF10A02022102A8FFF721
:101C10006BFE07A802AB042202A900900C20FFF77C
:101C200068FD044644B90798042805D19DF80800CA
:101C300000F00F000A2800D00224CCB900208DF853
:101C400008008DF809008DF80A008DF80B0003AA32
:101C5000042102A8FFF748FE07A802AB062202A94A
:101C600000900C20FFF745FD0446022C00D0002414
:101C700014B1022008B070BDB0208DF808008DF8B6
:101C800009600DF10A02022102A8FFF72DFE07A844
:101C900002AB042202A900900C20FFF72AFD0446A3
:101CA00044B90798042805D19DF8080000F00F00FA
:101CB0000A2800D002242046DCE700B587B0502077
:101CC0008DF8040000208DF805000DF106020221B8
:101CD00001A8FFF709FE06A801AB042201A90090A4
:101CE0000C20FFF706FD002007B000BD10B54FF433
:101CF00000613D4800F041FE0A2000F01EFA4FF45A
:101D00000061394800F03BFE3C2000F03AFA4FF405
:101D10000061354800F031FE4FF4FA7000F00DFA22
:101D20000F210120FFF78AFC022000F02AFA3D2152
:101D30001120FFF783FC1E212D20FFF77FFC0021DF
:101D40002C20FFF77BFC8D212A20FFF777FC3E211A
:101D50002B20FFF773FC40211520FFF76FFC80213B
:101D60003320FFF7B8FC40211520FFF767FC002067
:101D700010BD10B51420FFF77EFC044604F00300EC
:101D800018B903211420FFF798FC10BD10B50321EA
:101D90001420FFF7A0FC10BD10B50446082108462A
:101DA000FFF799FC3D211120FFF748FC8621172001
:101DB000FFF744FC7F212620FFF740FC1E212D2049
:101DC000FFF73CFC00212C20FFF738FC8D212A2056
:101DD000FFF734FC3E212B20FFF730FC052000F0FC
:101DE000D0F9FFF7C6FF10BD0008014010B504464A
:101DF0009248844205D1012141F2040000F0CCFF59
:101E000007E00121082000F0C7FF0121880300F04E
:101E1000D0FF10BD38B50446884884421AD1E0206E
:101E2000ADF8000003208DF8020018208DF80300A3
:101E30006946834800F0F4FC1020ADF800008DF8EE
:101E4000030069467E4800F0EBFC10217C4800F05E
:101E500094FD1DE04FF46040ADF8000003208DF8C4
:101E6000020018208DF803006946764800F0D8FC7F
:101E70004FF48050ADF8000010208DF80300694643
:101E8000704800F0CDFC4FF480516E4800F075FDB5
:101E900038BD10B586B004462046FFF7A7FF1020D6
:101EA000ADF810000020ADF804004FF48270ADF8DA
:101EB00006000020ADF80800ADF80A00ADF80C00EF
:101EC000ADF80E00ADF812000720ADF8140001A91E
:101ED000204601F0EFF92046FFF79CFF0121204644
:101EE00001F0D2FA0121204601F089FA06B010BDB6
:101EF00002460B46002100BF108900F002000028B6
:101F0000FAD0481CC1B2C82902DD4FF0FF3070473B
:101F10009381002100BF108900F001000028FAD051
:101F2000481CC1B2C82902DD4FF0FF30EFE79089AD
:101F30000020ECE702460B46002100BF108900F0AC
:101F400002000028FAD0481CC1B2C82902DD4FF0B7
:101F5000FF307047FF209081002100BF108900F002
:101F600001000028FAD0481CC1B2C82902DD4FF098
:101F7000FF30EEE7908918800020EAE730B503468D
:101F80000C46002124E000BF188900F00200002860
:101F9000FAD0481CC1B244F62060814202DD4FF005
:101FA000FF3030BD14F8010B9881002100BF188963
:101FB00000F001000028FAD018891881481CC1B22D
:101FC00044F62060814202DD4FF0FF30E9E7988956
:101FD000101EA2F10102D6D100BFE2E730B50346E0
:101FE0000C46002123E0FF20988108E0481CC1B284
:101FF00044F62060814202DD4FF0FF3030BD188989
:1020000000F002000028F1D0002108E0481CC1B215
:1020100044F62060814202DD4FF0FF30EEE7188980
:1020200000F001000028F1D0988904F8010B101E7F
:10203000A2F10102D7D100BFE0E70000003001406B
:1020400000080140000C014008B50C20ADF800006C
:1020500048208DF803006946284800F0E1FB08BDE0
:102060002DE9F041012601276424642540F2DC516A
:102070002348FFF795F941F270712148FFF792F973
:102080000A2000F07EF81F4C28E004211B4800F0D5
:102090005AFC06460EBB1B4D11E00821174800F004
:1020A00052FC074657B941F288311548FFF778F9D5
:1020B00040F6FC011248FFF775F902E06D1E002D95
:1020C000EBD100BF41F288310D48FFF769F940F6C6
:1020D000FC010B48FFF766F902E0641E002CD4D126
:1020E00000BF41F288310648FFF75AF940F6FC017B
:1020F0000348FFF757F9BDE8F081000000080140F0
:10210000000400407F96980010B56FF0040000F0C6
:1021100008FB344800683449B0FBF1F033490870DB
:102120000846007800EB4001C1EBC0104FF6FF718C
:1021300001EAC0002E49088010BD01462B4A1278E2
:102140004A434FF0E0235A6100229A611A4612690D
:1021500042F001021A6100BF4FF0E022106900F066
:1021600001021AB100F48032002AF5D04FF0E022CB
:10217000126922F001024FF0E0231A6100229A61F5
:10218000704701461A4A12884A434FF0E0235A61C9
:1021900000229A611A46126942F001021A6100BFD8
:1021A0004FF0E022106900F001021AB100F4803211
:1021B000002AF5D04FF0E022126922F001024FF020
:1021C000E0231A6100229A61704710B5044603E0CB
:1021D0004FF47A70FFF7D5FF201EA4F101018CB2F5
:1021E000F6D110BD2800002000127A003C0000202B
:1021F0003E000020014600BF704700BFDA4A128847
:1022000002F04002002AF9D0C2B2D74B1B1D1A803F
:10221000704710B586B00446012144F2040000F076
:10222000BBFDD14800F01CFE4FF40070ADF8140067
:1022300003208DF8160018208DF8170005A9CB484B
:1022400000F0EEFA4FF48060ADF8140004208DF831
:10225000170005A9C54800F0E3FA25208DF8000015
:1022600003208DF801008DF8020001208DF8030095
:10227000684600F00CFA01940020ADF80800ADF8B3
:102280000A00ADF80C00ADF810000C20ADF80E00FF
:1022900001A9B54800F027FE012240F22551B248BD
:1022A00000F0B9FE0121B04800F0A9FE06B010BD53
:1022B00010B540F22551AC4800F092FF20B3AA4877
:1022C00000F00EFFC4B2AA480470AA48008800F4C7
:1022D0000040C8B9A748008800F4804060B10A2CCB
:1022E00003D00020A349088020E0A248008840F4E1
:1022F0000040A049088019E00D2C06D19D480088B7
:1023000040F480409B49088010E09A480088C0F360
:102310000D0099490C5497480088401C9549088045
:1023200008460088C72801DD0020088010BD10B5D0
:1023300086B004460121480400F03BFD0121042041
:1023400000F02AFD8D4800F08BFD0420ADF814004C
:1023500003208DF8160018208DF8170005A9834872
:1023600000F05EFA0820ADF8140004208DF8170084
:1023700005A97E4800F054FA26208DF800000220BE
:102380008DF8010003208DF8020001208DF8030074
:10239000684600F07CF901940020ADF80800ADF823
:1023A0000A00ADF80C00ADF810000C20ADF80E00DE
:1023B00001A9724800F097FD012240F225516F48B3
:1023C00000F029FE01216D4800F019FE06B010BD95
:1023D00010B540F22551694800F002FF10B367487C
:1023E00000F07EFEC4B26648008800F40040C8B920
:1023F0006348008800F4804060B10A2C03D00020BC
:102400005F49088020E05E48008840F400405C4955
:10241000088019E00D2C06D15948008840F480400E
:102420005749088010E056480088C0F30D00554910
:102430000C5453480088401C5149088008460088C5
:10244000C72801DD0020088010BD10B586B0044605
:102450000121880400F0ADFC0121082000F09CFC63
:10246000494800F0FDFC4FF48060ADF814000320F3
:102470008DF8160018208DF8170005A9434800F0C4
:10248000CFF94FF40060ADF8140004208DF8170068
:1024900005A93E4800F0C4F927208DF8000003206C
:1024A0008DF801008DF8020001208DF803006846C8
:1024B00000F0EDF801940020ADF80800ADF80A0036
:1024C000ADF80C00ADF810000C20ADF80E0001A91D
:1024D0002D4800F008FD012240F225512A4800F065
:1024E0009AFD0121284800F08AFD06B010BD10B504
:1024F00040F22551244800F073FE10B3224800F04A
:10250000EFFDC4B22248008800F40040C8B920485A
:10251000008800F4804060B10A2C03D000201C49E0
:10252000088020E01A48008840F4004018490880DC
:1025300019E00D2C06D11648008840F4804014495B
:10254000088010E012480088C0F30D0011490C54B7
:102550000F480088401C0E49088008460088C7289C
:1025600001DD0020088010BD003801400008014056
:102570004400002046000020740000200044004079
:10258000480000203C01002000480040000C0140B1
:102590004A0000200402002030B589B005460C46F0
:1025A0000121022000F005FC0121082000F0F4FBCD
:1025B0000120ADF8200018208DF8230003208DF8AD
:1025C000220008A91D4800F02BF90220ADF82000D8
:1025D00018208DF8230003208DF8220008A9174841
:1025E00000F01EF9ADF80850ADF804400020ADF839
:1025F0000600ADF80A0001A91148FEF7D9F86020DD
:10260000ADF810000020ADF818000120ADF8120060
:1026100004A90B48FEF798F904A90948FEF7DFF969
:1026200008210748FEF766FD08210548FEF76BFD07
:1026300001210348FEF718FC09B030BD000C014031
:10264000000400400948804709480047FEE7FEE7CC
:10265000FEE7FEE7FEE7FEE7FEE7FEE7FEE7FEE752
:1026600004480549054A064B704700000315000859
:1026700031010008C0040020C00A0020C00600206C
:10268000C006002031490143314A1160704770B5DE
:10269000002100230F22C47804B32D4C246804F4D5
:1026A000E064C4F5E064210AC1F10403CA4044783F
:1026B00004FA03F18478144021430901254C06787B
:1026C000A155047804F01F050124AC4005786D1174
:1026D000AD0005F1E025C5F8004109E0047804F0FB
:1026E0001F050124AC401C4D0678761145F82640A4
:1026F00070BD1A4A0A400243154B1B1F1A607047EF
:1027000039B1134A121D12680243114B1B1D1A6086
:1027100006E00F4A121D126882430D4B1B1D1A6002
:102720007047042808D14FF0E021096941F0040105
:102730004FF0E022116107E04FF0E021096921F03C
:1027400004014FF0E0221161704700000000FA051B
:102750000CED00E000E400E080E100E080FFFF1FFE
:1027600010B50446CC48844208D10121042000F071
:102770002DFB0021042000F029FB46E0C7488442DD
:1027800008D10121082000F021FB0021082000F0E1
:102790001DFB3AE0C248844208D10121102000F01C
:1027A00015FB0021102000F011FB2EE0BD488442F3
:1027B00008D10121202000F009FB0021202000F099
:1027C00005FB22E0B848844208D10121402000F0F6
:1027D000FDFA0021402000F0F9FA16E0B3488442E7
:1027E00008D10121802000F0F1FA0021802000F0C2
:1027F000EDFA0AE0AE48844207D10121801500F0CD
:10280000E5FA0021A01500F0E1FA10BD10B5012194
:10281000084600F0DBFA0021012000F0D7FA10BDD5
:102820002DE9F04102460025002600200023002467
:10283000002791F803C00CF00F0591F803C00CF0CD
:10284000100CBCF1000F03D091F802C04CEA050552
:1028500091F800C0BCF1000F31D0146800202BE0CB
:102860004FF0010C0CFA00F3B1F800C00CEA0306BB
:102870009E4220D183004FF00F0C0CFA03F7BC43AB
:1028800005FA03FC4CEA040491F803C0BCF1280FDC
:1028900006D14FF0010C0CFA00FCC2F814C00AE09B
:1028A00091F803C0BCF1480F05D14FF0010C0CFAB0
:1028B00000FCC2F810C0401C0828D1D31460B1F845
:1028C00000C0BCF1FF0F34DD546800202EE000F1A1
:1028D000080C4FF0010808FA0CF3B1F800C00CEA3C
:1028E00003069E4221D183004FF00F0C0CFA03F730
:1028F000BC4305FA03FC4CEA040491F803C0BCF1A4
:10290000280F05D100F1080C08FA0CF8C2F8148061
:1029100091F803C0BCF1480F07D100F1080C4FF04B
:10292000010808FA0CF8C2F81080401C0828CED321
:102930005460BDE8F0814FF6FF7101800221817083
:102940000421C17070470246002093680B400BB110
:10295000012000E0002070470146886880B270477F
:1029600002460020D3680B400BB1012000E000209C
:1029700070470146C86880B2704701617047416185
:1029800070470AB1016100E041617047C160704762
:102990004FF480320A438261816182618269826977
:1029A000704702460020434B18684FF6807318406A
:1029B00040EA021008433F4B186070473E49C86127
:1029C0007047F0B50A46002300240021002500F0DE
:1029D0000046B6F1004F02D1364EF16901E0354EA6
:1029E0007168C0F3034583B200F44016B6F5401F8A
:1029F00008D121F070612F4E766826F070662D4F59
:102A00007E6012E000F48016B6F5801F06D1032622
:102A100006FA05F4A14341F0706106E0460D360167
:102A200003FA06F6B14341F0706122B1460D36015A
:102A300003FA06F6314300F00046B6F1004F02D12A
:102A40001C4EF16101E01B4E7160F0BD30B50022FB
:102A50008B071C0F0F2303FA04F2164B08338C105C
:102A600053F824309343134C08348D1044F8253028
:102A700023468C1053F824308C07240F00FA04F4FA
:102A800023430C4C08348D1044F8253030BD0A49DE
:102A9000DC3108607047000000080140000C014074
:102AA000001001400014014000180140001C0140CA
:102AB000002001400000014000002042DF48006883
:102AC00040F00100DD49086008464068DC490840E4
:102AD000DA49486008460068DA490840D749086082
:102AE0000846006820F4802008600846406820F40A
:102AF000FE0048604FF41F0088607047CF490968A6
:102B000021F48031CD4A11601146096821F48021F9
:102B10001160B0F5803F03D0B0F5802F0ED106E0F4
:102B2000C649096841F48031C44A116007E0C349CD
:102B3000096841F4A021C14A116000E000BF00BF54
:102B4000704710B501460022002300204A11012AD7
:102B500002D1BA4C236806E0022A02D1B74C236A9C
:102B600001E0B64C636A01F01F02012494401C404E
:102B70000CB1012000E0002010BD38B5002000900D
:102B80000024002500BF3120FFF7DBFF0546009839
:102B9000401C00900098B0F5A06F01D0002DF2D03D
:102BA0003120FFF7CEFF08B1012400E000242046C9
:102BB00038BD01460020A14A106820F0F80040EA24
:102BC000C10010607047A0490860704702460020AD
:102BD0009A4B586820F47C1042EA01031843974B43
:102BE0005860704798490866704701460020934A2C
:102BF000506820F003000843506070478F484068D9
:102C000000F00C007047014600208C4A506820F00C
:102C1000F00008435060704701460020874A506822
:102C200020F4E06008435060704701460020834A6A
:102C3000506820F4605040EAC1005060704729B1EC
:102C40007E4A527A02437D4B5A7204E07B4A527AA2
:102C500082437A4B5A7270477B49D831086070477B
:102C600001460020754A506820F4404008435060F7
:102C700070470021714A20321170704A82F820108A
:102C8000012802D004280AD104E001216B4A203235
:102C9000117005E00521694A2032117000E000BF83
:102CA00000BF70476949086070476449096A014379
:102CB000624A11627047654944390860704730B50F
:102CC00000210022002400235C4D6D6805F00C01FA
:102CD00021B1042905D0082923D105E05C4D056008
:102CE00022E05B4D05601FE0544D6D6805F47012E5
:102CF000524D6D6805F48034022505EB92421CB9F3
:102D0000544D554305600BE04C4D6D6805F400359E
:102D10001DB1504D5543056002E04D4D55430560D2
:102D200002E04B4D056000BF00BF444D6D6805F0EB
:102D3000F0010909484D6B5C0568DD4045603F4D79
:102D40006D6805F4E061090A434D6B5C4568DD4040
:102D500085603A4D6D6805F46051C90A3E4D6B5C63
:102D60004568DD40C560354D6D6805F44041890B0F
:102D70003A4D6B5CC568B5FBF3F5056130BD29B113
:102D80002E4A526902432D4B5A6104E02B4A526984
:102D900082432A4B5A61704729B1284A92690243FB
:102DA000264B9A6104E0254A92698243234B9A613B
:102DB000704729B1214AD2690243204BDA6104E00D
:102DC0001E4AD26982431D4BDA61704729B11B4A02
:102DD000D2680243194BDA6004E0184AD268824391
:102DE000164BDA60704729B1144A12690243134B3B
:102DF0001A6104E0114A12698243104B1A6170474C
:102E000012494039086070470F49C86470470B4940
:102E1000C87170470948406A40F0807007494862AD
:102E2000704701460020054A92680A400AB1012015
:102E300000E000207047014988727047001002408E
:102E40000000FFF8FFFFF6FE00004242800442420D
:102E500000127A0000093D005000002060000020B0
:102E600010B50446FB48844209D101218803FFF7CD
:102E7000ADFF00214FF48040FFF7A8FF32E0F64895
:102E8000844209D101214804FFF7ADFF00214FF42E
:102E90000030FFF7A8FF25E0F048844209D1012166
:102EA0008804FFF7A0FF00214FF48020FFF79BFF6D
:102EB00018E0EB48844209D10121C804FFF793FFD1
:102EC00000214FF40020FFF78EFF0BE0E54884421D
:102ED00008D101210805FFF786FF00214FF480107B
:102EE000FFF781FF10BD2DE9F04786B005460E467D
:102EF0000024A24600BFA1460027B08900B100BF50
:102F00002F462C8A4CF6FF700440F08804432C8234
:102F1000AC894EF6F3100440B088318908437189BA
:102F200008430443AC81AC8A4FF6FF400440B089AB
:102F30000443AC8201A8FFF7C2FEC648874202D113
:102F4000DDF810A001E0DDF80CA0A88900F4004035
:102F500040B10AEBCA0000EB0A1031684900B0FB2F
:102F6000F1F807E00AEBCA0000EB0A1031688900AB
:102F7000B0FBF1F86420B8FBF0F0040120096421F3
:102F800001FB1089A88900F4004040B1322000EB19
:102F9000C900B0FBF1F000F00700044308E0322064
:102FA00000EB09106421B0FBF1F000F00F000443C6
:102FB0002C8106B0BDE8F0874FF416510160002166
:102FC0008180C18001810C21418100218181704774
:102FD00010B502460020108A4FF2FF0318400B88FC
:102FE0004C8823438C882343CC8823431843108286
:102FF00010BD0021018041808180C180704721B1D6
:10300000828942F40052828104E082894DF6FF7386
:103010001A4082817047F0B503460024002600253F
:10302000002040F66A17B94200D100BF1846C1F32C
:10303000421401F01F06012707FA06F5012C01D101
:103040000C3004E0022C01D1103000E014301AB131
:1030500007682F43076002E00768AF430760F0BDD1
:103060001AB1838A0B43838202E0838A8B43838273
:103070007047028A4FF6F0731A400282028A0A43AE
:103080000282704782894FF2FF731A4082818289DF
:103090000A438281704721B1828942F00202828113
:1030A00004E082894FF6FD731A4082817047028ADC
:1030B0004FF6DF731A400282028A0A430282704787
:1030C00021B1028A42F48042028204E0028A4BF675
:1030D000FF731A4002827047C1F308028280704772
:1030E00001468888C0F308007047818941F00101DA
:1030F00081817047028BD2B20283028B42EA0122A5
:1031000002837047028B02F47F420283028B0A43E0
:103110000283704721B1828A42F02002828204E059
:10312000828A4FF6DF731A408282704721B1828A09
:1031300042F01002828204E0828A4FF6EF731A4056
:103140008282704721B1828A42F00802828204E0C2
:10315000828A4FF6F7731A408282704721B18289C2
:1031600042F40042828103E08289C2F30E0282812E
:10317000704721B1828A42F40062828204E0828A2E
:103180004FF2FF731A4082827047828A4FF6FB73B8
:103190001A408282828A0A438282704721B1828ADF
:1031A00042F00202828204E0828A4FF6FD731A40E6
:1031B0008282704702460020B1F5007F00D100BF37
:1031C00013880B400BB1012000E00020704701F490
:1031D0000072B2F5007F00D100BFCA430280704781
:1031E00070B50246002400230025002040F66A1630
:1031F000B14200D100BFC1F3421501F01F03012607
:1032000006FA03F3012D02D19689334006E0022D20
:1032100002D1168A334001E0968A33400C1201260F
:1032200006FA04F41688344013B10CB1012000E012
:10323000002070BD10B50022002340F66A14A142A0
:1032400000D100BF0A1201249440A3B2DC430480E1
:1032500010BD00000038014000440040004800401C
:10326000004C00400050004010B50446BE48844267
:1032700008D101218014FFF7A9FD0021A014FFF758
:10328000A5FD16E0B948844208D101210014FFF7DA
:10329000AAFD00212014FFF7A6FD0AE0B4488442ED
:1032A00007D10121C013FFF79EFD0021E013FFF7B6
:1032B0009AFD10BD10B50022028802F441520B881D
:1032C0004C8823438C882343CC8823430C89234395
:1032D0004C8923438C892343CC8923431A4302809E
:1032E000838B4FF2FF74234083830B8A038210BDCC
:1032F0002DE9F04F85B005460C464FF00009022736
:103300004FF000084FF0010B0026B246A88B4FF299
:1033100040010840A88302202884B5F81C90A068CA
:10332000022801D100BF38E0A08810B94FF0010B8E
:1033300001E04FF0020B8D48854200D100E000BF54
:103340006846FFF7BCFCDDF800A0E088B0F5007F20
:103350000AD14FEA1A2000EB80004000A168B0FBC0
:10336000F1F0401D86B20BE04FEA4B10BAFBF0F0D3
:1033700000EB80004000A168B0FBF1F0401D86B278
:103380000A20B6FBF0F606F00108A6EB0800C0F331
:103390004F074FF6FF7000EA0828022F01DBFF2FCE
:1033A00002DD02274FF00008E08840EA08003843B9
:1033B0002884A088A189084361880843218808439C
:1033C00040F4006040EA0909A5F81C9005B0BDE88A
:1033D000F08F0021018041808180C1800181418185
:1033E0008181C181072101827047002101804180D4
:1033F0008180C1800221816000218181704721B1DB
:10340000028842F04002028004E002884FF6BF7357
:103410001A400280704721B1828B42F4806282831D
:1034200004E0828B4FF6FF331A408283704730B539
:10343000002400230C110125A540ABB21AB18588E8
:103440001D43858002E085889D43858030BD1AB18B
:1034500083880B43838002E083888B43838070479B
:10346000818170470146888970474FF6FF6291421B
:1034700004D0028842F48072028004E002884FF691
:10348000FF631A400280704721B1828842F0040233
:10349000828004E082884FF6FB731A408280704776
:1034A00002884FF2FF731A40028002880A430280AA
:1034B0007047018841F480510180704721B1028832
:1034C00042F40052028004E002884DF6FF731A4075
:1034D0000280704702460020012901D0108B00E0D5
:1034E000908A70470146088A7047B1F5804F04D131
:1034F000028842F48042028004E002884BF6FF73A7
:103500001A40028070470246002013890B400BB11D
:10351000012000E000207047CA4302817047F0B5E7
:103520000246002000240023002501F00F07012699
:10353000BE40B4B20B1101269E40B3B2968806EA93
:1035400003051689264016B10DB1012000E00020C8
:10355000F0BD10B5002201F00F040123A3409AB280
:10356000D343038110BD000000300140003800400B
:10357000003C0040704700000FB4044910B503AA96
:10358000029800F053F910BC5DF814FB40000020D5
:1035900070B5044685690068C10601D5302600E093
:1035A0002026C00707D070BDD4E9012130469047DE
:1035B000206A401C20626D1EF6D570BD70B50446B1
:1035C00085690078C00707D170BDD4E901212020AA
:1035D0009047206A401C20626D1EF6D570BD000029
:1035E00070B504460D4621461068AFF3008021886F
:1035F000090502D50F4A7A4402E00E4A7A440E3297
:10360000002104F1240305E000F00F060009965D97
:103610005E54491C0028F7D120780023000704D508
:10362000702D02D009B1022311322046BDE870404E
:1036300000F0A2B8000300002DE9F05F89460446BF
:103640004FF0000ADFF824B1FB44C0F820A0204668
:10365000E168884700287DD0252806D0D4E90121DB
:103660009047206A401C2062F1E700255F46204613
:10367000E16888472028064607DB312E05D2B819B5
:1036800010F8200C08B10543F1E7A80701D525F093
:103690000405C4F81CA00027C4F818A02A2E09D0DD
:1036A000304600F023F938B304EB8708303EC8F801
:1036B000186019E059F8041B204604EB8702916159
:1036C000E1688847012F064618D1E069002820DA12
:1036D00025F020051DE0D8F8180000EB800006EB6F
:1036E00040003038C8F818002046E1688847064690
:1036F00000F0FCF80028EED1012F0AD02E2E08D1C0
:103700002046E16888477F1C0646022F45F02005C9
:10371000C4DBA069002803DA404245F00105A0613E
:10372000E80701D025F01005A6B1A6F1410019283F
:1037300002D8203645F400654A46314620462560C9
:103740004D46FCF72FFD60B1012807D0ED1D25F097
:10375000070000E007E000F1080978E705F1040937
:1037600075E730467AE7206ABDE8F09FD602000090
:1037700070477047704770472DE9F0470D469946EE
:103780009246044600F124080168880604D5E069E1
:1037900021F01001216000E00120A84201DD471B5B
:1037A00000E00027A1697A1902EB0900081AA0615C
:1037B0002078C00602D42046FFF7EAFE002608E083
:1037C000D4E901211AF806009047206A401C761CB3
:1037D00020624E45F4DB2078C0060AD52046FFF76C
:1037E000D7FE06E0D4E9012130209047206A401C32
:1037F0002062381EA7F10107F4DC07E0D4E90121BB
:1038000018F805009047206A401C2062281EA5F188
:103810000105F3DC2046FFF7D1FE2078000602D533
:103820000220BDE8F0870120FBE70000074B70B5E0
:103830000D467B4400F011F80446284600F020F8BD
:1038400010B14FF0FF3070BD204670BDC5E9FFFFDD
:1038500001694A1C02610878704700B58FB0CDE954
:1038600001310021059105497944CDE90310114644
:103870006846FFF7E1FE0FB000BD0000E5FFFFFF67
:10388000007B00F080007047754600F02BF8AE46D4
:1038900005006946534620F00700854618B020B55C
:1038A000FEF7DEFEBDE820404FF000064FF00007B7
:1038B0004FF000084FF0000B21F00701AC46ACE8D8
:1038C000C009ACE8C009ACE8C009ACE8C0098D4645
:1038D000704710B50446AFF300802046BDE81040A5
:1038E000FCF772BC004870475C04002030380A289E
:1038F00001D2012070470020704730313233343517
:10390000363738394142434445464030580030311B
:103910003233343536373839616263646566403036
:103920007800040000080000000000000002000110
:10393000000010000D0A2A2A2A2A2A2A2A2A2A2ABC
:103940002A2A2A2A2A2A2A2A2A2A2A2A2A2A2A2AD7
:103950002A576F726B696E672A2A2A2A2A2A2A2A0C
:103960002A2A2A2A2A2A2A2A2A2A2A2A2A2A2A2AB7
:103970002A2A2A2A2A2A0D0A000000000D0A2A2AC9
:103980002A2A2A2A2A2A2A2A2A2A2A2A2A2A2A2A97
:103990002A2A53797374656D207374617274656437
:1039A000207375636365737366756C6C792A2A2A54
:1039B0002A2A2A2A2A2A2A2A2A2A2A2A2A2A2A2A67
:1039C0002A0D0A00E439000800000020640000000D
:1039D0006C010008483A0008640000205C0A0000FE
:1039E00088010008000000000000FFFFFFFFFFFF4C
:1039F0000000000000F91E7C140A1B2C3D4E5F0ADB
:103A00001B2C3D4E5F0A1B2C3D00000000A24A0407
:103A1000000000000000000001020304060708097E
:103A20000000000000000000000000000000000096
:103A30000000000000000000010203040102030472
:083A400006070809020406084C
:0400000508000131BD
:00000001FF
